:020000040001F9
:102000003DB8F39600000000000200001C3E0400F2
:1020100000000000000000000000000000000000C0
:10202000FFFFFFFFFFFFFFFFFFFFFFFFFFFFFFFFC0
:10203000FFFFFFFFFFFFFFFFFFFFFFFFFFFFFFFFB0
:10204000FFFFFFFFFFFFFFFFFFFFFFFFFFFFFFFFA0
:10205000FFFFFFFFFFFFFFFFFFFFFFFFFFFFFFFF90
:10206000FFFFFFFFFFFFFFFFFFFFFFFFFFFFFFFF80
:10207000FFFFFFFFFFFFFFFFFFFFFFFFFFFFFFFF70
:10208000FFFFFFFFFFFFFFFFFFFFFFFFFFFFFFFF60
:10209000FFFFFFFFFFFFFFFFFFFFFFFFFFFFFFFF50
:1020A000FFFFFFFFFFFFFFFFFFFFFFFFFFFFFFFF40
:1020B000FFFFFFFFFFFFFFFFFFFFFFFFFFFFFFFF30
:1020C000FFFFFFFFFFFFFFFFFFFFFFFFFFFFFFFF20
:1020D000FFFFFFFFFFFFFFFFFFFFFFFFFFFFFFFF10
:1020E000FFFFFFFFFFFFFFFFFFFFFFFFFFFFFFFF00
:1020F000FFFFFFFFFFFFFFFFFFFFFFFFFFFFFFFFF0
:10210000FFFFFFFFFFFFFFFFFFFFFFFFFFFFFFFFDF
:10211000FFFFFFFFFFFFFFFFFFFFFFFFFFFFFFFFCF
:10212000FFFFFFFFFFFFFFFFFFFFFFFFFFFFFFFFBF
:10213000FFFFFFFFFFFFFFFFFFFFFFFFFFFFFFFFAF
:10214000FFFFFFFFFFFFFFFFFFFFFFFFFFFFFFFF9F
:10215000FFFFFFFFFFFFFFFFFFFFFFFFFFFFFFFF8F
:10216000FFFFFFFFFFFFFFFFFFFFFFFFFFFFFFFF7F
:10217000FFFFFFFFFFFFFFFFFFFFFFFFFFFFFFFF6F
:10218000FFFFFFFFFFFFFFFFFFFFFFFFFFFFFFFF5F
:10219000FFFFFFFFFFFFFFFFFFFFFFFFFFFFFFFF4F
:1021A000FFFFFFFFFFFFFFFFFFFFFFFFFFFFFFFF3F
:1021B000FFFFFFFFFFFFFFFFFFFFFFFFFFFFFFFF2F
:1021C000FFFFFFFFFFFFFFFFFFFFFFFFFFFFFFFF1F
:1021D000FFFFFFFFFFFFFFFFFFFFFFFFFFFFFFFF0F
:1021E000FFFFFFFFFFFFFFFFFFFFFFFFFFFFFFFFFF
:1021F000FFFFFFFFFFFFFFFFFFFFFFFFFFFFFFFFEF
:1022000080E2012069E60200B5DD02003DE6020041
:102210003DE602003DE602003DE60200000000004F
:1022200000000000000000000000000091DE02003D
:102230003DE60200000000003DDE02003DE6020037
:1022400045DF02009515040045DF020045DF02006E
:1022500045DF020045DF020045DF020045DF0200E6
:102260005915040045DF020045DF0200791504001E
:1022700045DF020045DF020045DF020045DF0200C6
:1022800045DF020045DF020045DF020045DF0200B6
:1022900045DF020045DF020045DF020045DF0200A6
:1022A00045DF020045DF020045DF020045DF020096
:1022B00045DF020045DF020045DF020045DF020086
:1022C00045DF020045DF020045DF020045DF020076
:1022D00045DF020045DF020045DF020045DF020066
:1022E00045DF020045DF020045DF020045DF020056
:1022F00045DF020045DF020045DF020045DF020046
:1023000053B94AB9002908BF00281CBF4FF0FF315C
:102310004FF0FF3000F00CB8ADF1080C6DE904CEC1
:102320000CF0A4F8DDF804E0DDE9022304B0704706
:10233000704700BF2DE9F00791E8F807B2E80210F6
:102340005B1854EB0C04B2E802104D4156EB0C063E
:10235000B2E802104F4158EB0C08B2E8021059EBFA
:1023600001095AEB0C0A80E8F80780410130BDE80A
:10237000F00770472DE9F00791E8F807B2E802107E
:102380005B1A74EB0C04B2E802108D4176EB0C067C
:10239000B2E802108F4178EB0C08B2E8021079EB3A
:1023A00001097AEB0C0A80E8F80780414042BDE859
:1023B000F00770472DE9F007524290E87800B1E845
:1023C00080071740DB1918EA020854EB080419EAE1
:1023D000020955EB09051AEA020A56EB0A0678C00B
:1023E00090E87800B1E8800717407B4118EA0208BE
:1023F00054EB080419EA020955EB09051AEA020A26
:1024000056EB0A0678C080410130BDE8F0077047FE
:102410002DE9F007524290E87800B1E880071740B4
:10242000DB1B18EA020874EB080419EA020975EBD1
:1024300009051AEA020A76EB0A0678C090E87800E5
:10244000B1E880071740BB4118EA020874EB0804A2
:1024500019EA020975EB09051AEA020A76EB0A067F
:1024600078C080414042BDE8F00770472DE9F00197
:1024700052424FF0040890E8300091E8C000A31BDE
:102480001340E41AF618EB1B1340ED1AFF1830C086
:10249000C0C1B8F10108EED1BDE8F001704700BF3E
:1024A00000B592E8DC072DE9DC07B1E8805702B4FB
:1024B000A7FB02510A95A8FB020BE7FB6310E9FB9F
:1024C00062B00B91A8FB0351EAFB6201E7FB64B524
:1024D000E7FB6605E8FB6615CDF830B0A9FB03B64F
:1024E000EAFB6316ECFB6356E8FB640BE9FB641B39
:1024F000EAFB645BECFB646B0D90ACFB0230059C6B
:10250000EEFB6250E9FB6460EAFB64B0E7FB643118
:10251000E8FB6451069CE8FB6461E9FB64B1EAFBFB
:1025200064010E93A7FB0432079CE7FB6462E8FB9F
:1025300064B2E9FB6402EAFB6412049CE9FB6453A5
:10254000EAFB6463089CE7FB64B3E8FB6403E9FB14
:102550006413EAFB64230F955DF8049B99E8000679
:10256000DDF80080A9FB0854EAFB68B4DDF81080B0
:10257000ECFB6804EEFB6814E9FB6824EAFB6834B2
:10258000DDF80480EEFB6865E9FB68B5EAFB6805E9
:10259000DDF81480ECFB6815EEFB6825E9FB683577
:1025A000EAFB68450F96DDF80880AEFB0876E9FB8C
:1025B0006806EAFB6816DDF81880ECFB6826EEFB7F
:1025C0006836E9FB6846EAFB6856DDF80C80ECFBF0
:1025D00068B7EEFB6807E9FB6817EAFB6827DDF8D8
:1025E0001C80ECFB6837EEFB6847E9FB6857EAFBA9
:1025F000686708B000BD00BF2DE9F14F87B0FFF755
:102600004FFFDDF81C8008F1200888E8FF00FFBCC0
:1026100087E87F08BDE8F08F00B591E89857A3FBE5
:1026200003520195A3FB0401E3FB6420E3FB671065
:102630000292A3FB0752E3FB6802E4FB6415E3FB91
:102640006805E3FB69250391A4FB07B6E3FB692654
:10265000E3FB6A56E4FB670BE4FB682BE3FB6A5B76
:10266000E3FB6C6B0490A4FB0810E4FB6950E3FBF4
:102670006C60E3FB6EB0E7FB6721E4FB6951E4FBB0
:102680006A61E3FB6EB1E4FB6E010592A7FB0832C1
:10269000E4FB6A62E4FB6CB2E4FB6E02E7FB6E12E1
:1026A000E7FB6853E7FB6963E4FB6CB3E7FB6C0390
:1026B000E7FB6E13E8FB6E230695A7FB0954E7FBC7
:1026C0006AB4E7FB6C04E8FB6C14E8FB6E24E9FBDE
:1026D0006E34E8FB6865E7FB6AB5E8FB6A05E8FB72
:1026E0006C15E9FB6C25E9FB6E35EAFB6E45079638
:1026F000A8FB0976E8FB6A06E9FB6A16E9FB6C268B
:10270000EAFB6C36EAFB6E46ECFB6E56E8FB69B7FB
:10271000E9FB6907E9FB6A17EAFB6A27EAFB6C3702
:10272000ECFB6C47ECFB6E57EEFB6E6700BD00BF29
:102730002DE9F14F87B0FFF76FFFDDF81C8008F13E
:10274000200888E8FF00FFBC87E87F08BDE8F08F1D
:1027500030B44FF0000310F8014B11F8015B013A5F
:1027600084EA050443EA0403F5D1A3F101034FEA27
:10277000D37030BC704700BF4FF0000310F8012B3E
:10278000013943EA0203F9D1A3F101034FEAD370FF
:10279000704700BF30B411F8014B12F8015B6C4078
:1027A00000F8014B013BF6D130BC70472DE9F00732
:1027B00091E8F807B2E802105B1854EB0C04B2E899
:1027C00002104D4156EB0C06B2E802104F4158EB97
:1027D0000C08B2E8021059EB01095AEB0C0A8941C6
:1027E000B3F1FF3374F1FF3475F1FF3576F1000674
:1027F00077F1000778F1000879F101097AF1FF3AE1
:1028000051F100015B184C414D4156F1000657F162
:10281000000758F1000859EBD1795AEB010A80E81A
:10282000F807BDE8F00770472DE9F00791E8F807D1
:10283000B2E802105B1A74EB0C04B2E802108D418E
:1028400076EB0C06B2E802108F4178EB0C08B2E888
:10285000021079EB01097AEB0C0A89415B184C41B3
:102860004D4156F1000657F1000758F1000859EBA9
:10287000D1795AEB010A80E8F807BDE8F007704704
:1028800018EB040859EB05095AEB060A5BEB070B3A
:102890005FF0000C4CF1000C18EB050859EB060931
:1028A0005AEB070A5BEB070B50EB0C005FF0000CD8
:1028B00051EB0C0152EB0C0263414CF1000CB8EBF4
:1028C000070879F100097AF1000A7BEB040BA841B3
:1028D000B141A241B3416CF1000CBBEB050BB0411F
:1028E000B941AA41BB416CF1000C6FEAEC74B8EB42
:1028F000040879EB04097AEB040A7BF1000B70F110
:10290000000071F1000172EBD472A3416CF1000C74
:1029100018EBEC7859EBEC795AEBEC7A5BF1000BA5
:1029200050F1000451F1000552EBDC7653EBEC77EB
:102930004CF1000C18EBEC7059EBEC715AEBEC72AB
:102940005BF1000354F1000455F1000556EBDC7611
:1029500057EBEC77704700BF2DE9F14F87B0FFF7D9
:102960009FFDDDF81080DDF81490DDF818A0FFF76A
:1029700087FFBDE8000FFFF783FF03B05DF8048B0E
:1029800088E8FF00BDE8F08F2DE9F14F87B0FFF731
:1029900043FEDDF81080DDF81490DDF818A0FFF795
:1029A0006FFFBDE8000FFFF76BFF03B05DF8048B0E
:1029B00088E8FF00BDE8F08F1FB5144C207A8DF831
:1029C0000100E0798DF80000A079ADF8040060798D
:1029D000ADF80200684606F089F808B1A72110E0BA
:1029E000E068029002A806F097F808B1AB2108E071
:1029F00007480068039003A80FF0CCF9002803D023
:102A0000AF21032000F0DCF81FBD0000D013002030
:102A1000C82C010010B528B11422044910F02DF97A
:102A2000002010BD6FF0150010BD0000EC2C01005F
:102A300070B56FF02C03B8BB1E4C607808B19811CC
:102A400070BD01B36FF01505AAB11B48891E062998
:102A50002BD2DFE801F0030616192A1C1178417009
:102A600017E0917839B1D17829B111781B2902D3B7
:102A700051781B2901D2284670BD1168C0F8051095
:102A800007E01168C16004E01178817001E01188ED
:102A900041820122084900200BF038FEB0F5803F4A
:102AA00005DB6FF00B0070BDFFE71846FBE7012167
:102AB000A170F8E728000020D013002010B5074CC3
:102AC000607820B106F018FB20780BF0EFFB00F0E7
:102AD00087FD00F05FFE0020607010BD2800002020
:102AE00070B50C46050002D00CB1600702D06FF043
:102AF000150070BD00F020F9A8B128460BF09CFB32
:102B00000A4D00220A49287020460BF0FFFD0FF005
:102B10005BFD0021287806F0D9FAFFF74DFF012070
:102B20006870002070BD4FF0FF3070BD280000209D
:102B3000D013002030B589B004000CD00BF022FB7C
:102B40004FF0FF3520B10BF0B5F9B0F5FA7F05D99C
:102B5000284609B030BD6FF01500FAE7134D144850
:102B60006C6000F00BFA00206870A870014620220B
:102B7000684610F0FCF820220E49684610F07DF8F7
:102B8000202269460C4810F078F8EFF3108472B6F2
:102B900000F034FD094800F009FE18B1C5210320FA
:102BA00000F00EF804B962B60020D2E72800002039
:102BB000B9290100CC2C0100D0130020652D0100A3
:102BC0000EB572B6154A5568DDB1002203466E4651
:102BD0000A2403E0B0FBF4F0521CD2B20028F9D171
:102BE000B0540AE0D8B2B0FBF4F7B3FBF4F304FB43
:102BF0001700521ED2B23030B054002AF2D1304603
:102C0000A847BFF34F8F06480168064A01F4E06108
:102C100011430160BFF34F8F00BFFDE72800002084
:102C20000CED00E00400FA05064810B58178407804
:102C3000014302D04FF0FF3010BD06F06DFA0020C6
:102C400010BD000028000020064810B581784078AB
:102C5000014302D04FF0FF3010BD05F0BBFF002054
:102C600010BD000028000020064810B5817840788B
:102C7000014302D04FF0FF3010BD0FF02AFA0020C0
:102C800010BD000028000020064810B5817840786B
:102C9000014302D04FF0FF3010BD06F04FFA002084
:102CA00010BD000028000020064810B5817840784B
:102CB000014302D04FF0FF3010BD0FF01AFA002090
:102CC00010BD0000280000200100000000010100EC
:102CD000001B1B03020000004C1D000000001F0031
:102CE000000000000000000000000000D80C2D2FA4
:102CF00036AEE25C8026804C3F4D16535096C7732B
:102D0000054A10B5526812B1BDE810401047922133
:102D10000420FFF755FF0000F0130020054A10B50E
:102D2000926812B1BDE81040104798210420FFF7C7
:102D300047FF0000F01300200548016829B14168F1
:102D400019B1806808B10120704700207047000069
:102D5000F013002002490DC881E80D0000207047E3
:102D6000F0130020F8B5124C0026256811E00098F9
:102D7000022802D003280CD106E0206810B1002000
:102D8000266005E028210CE0206868B1012026605B
:102D9000A847684600F0D0FC0028E8D0052805D0F8
:102DA00035210420FFF70CFF2D21FAE7F8BD0000C4
:102DB000300000202DE9FC41254E0546001D06F19E
:102DC00044073060387858B1BA783C46791C2846B8
:102DD000921C0FF052FF002020700420BDE8FC81FF
:102DE0001B4801F07FFE0446022804D0042C07D0C3
:102DF000082C27D02AE0164928460BF027FD25E0AD
:102E00003078082804D105213E200BF0F1FC60B198
:102E10000F4928460BF07FFD0028D3D0A9782878E9
:102E20000BF0E6FC0028CDD010E0B088ADF8000033
:102E300001A968460CF060F80028C3D0A72108203B
:102E4000FFF7BEFE024928460BF02EFD2046C5E7DF
:102E5000FC13002070B50A7882703AB3012A25D895
:102E60001323037000230AE001EB430400EB430546
:102E7000A678EE706488240A5B1C2C71DBB2934246
:102E8000F2D300230BE000BF01EB430500EB43044A
:102E90002E796671AD882D0A5B1CA571DBB2934259
:102EA000F2D3012101EB8200C0B270BD002070BDE1
:102EB000402803D2401EC1B2054805E0FF2805D0D6
:102EC0004038C1B2024808300BF007BF01207047FC
:102ED0003C000020401EC1B201480BF0FEBE0000C5
:102EE0004C00002010B5074A0168064B916140680C
:102EF000D0611C681832A143116059688843506042
:102F000010BD000034000020064A0168916040684E
:102F1000D060083241F48C211160034908435060AD
:102F20007047000034000020F807400202490268A0
:102F30000A614068486170473400002007484FF03C
:102F4000FF3100220160C90C416000F108011F201F
:102F50000A604A600831C1E9000270473C00002065
:102F600010B5FFF7EBFF0FF02DF80446024800689C
:102F700000B18047204610BD540000200149086080
:102F80007047000054000020022101804180002190
:102F90000171D821417142F60C51C1800149816013
:102FA000002070472F36AEE210B5022804D340F25D
:102FB00003211720FFF704FE0149085C10BD000043
:102FC00044150020F8B5050000950DD000260878BE
:102FD00049780446A14200D90C46AA0706D04FF40E
:102FE000E5711720FFF7ECFD0126F0E7124F38706E
:102FF00079703146684600F0D3F800210B460098FE
:10300000C01C20F00300009066B907EB8102D0607D
:10301000002005E0D2F80CC04CF82030401CC0B2B3
:10302000A042F7D30098491C00EB8400C9B200907D
:103030000229E4D3401BF8BD4415002070B50446B6
:10304000857900F0E9F80C4AE17902EB85020EE09F
:10305000D36853F8213043B1481CE071A180D06897
:1030600050F821002060002070BD491CC9B2814287
:10307000EED3E171052070BD44150020F0B421B1FC
:10308000012902D0F0BC002070470F4A00252B46D2
:103090004FF6FF7402EB8106575C0AE05A19D6F826
:1030A0000CC092B25CF822C0BCF1000F04D05B1CD3
:1030B0009BB29F42F2D8224602801046A242E1D043
:1030C000F0BC00F035B80000441500202DE9F041B7
:1030D0000646A0F57F400C4643F20207FF3820D099
:1030E000022C02D30720BDE8F081304600F048F8FA
:1030F000050016D00C48294650F824203046904749
:103100000A48002100EB8407F86840F826102046A2
:1031100000F078F80246294678680CF07BF9002028
:10312000E1E73846DFE700003032010044150020B7
:1031300070B50E4605460CF0A7F958B10F4800EBE4
:103140008604E06850F8250038B14FF4C5711720A7
:10315000FFF736FD40F28911F9E7606800280BD0CF
:10316000304600F04FF8014660680CF0FBF800288C
:1031700002D0E16841F8250070BD00004415002030
:1031800070B50C4605460CF07FF9002805D00348C1
:1031900000EB8400C06850F8250070BD4415002085
:1031A0002DE9F843164E8846054600242868C01CC1
:1031B00020F003002860204600F024F8315D4843E9
:1031C000B8F1000F01D0002200E02A680146009209
:1031D00032B100274FEA0D000CF0F5F81FB106E000
:1031E00001270020F8E706EB8401009A4A6029686D
:1031F000641C0844E4B22860022CD7D3BDE8F883ED
:1032000044150020034931F810004FF6FC71C01C32
:10321000084070472C3201000349087849788842F9
:1032200000D208467047000044150020F80218013B
:1032300067110200110702002DE9FF4F244C0646DA
:1032400081B020689A46934658B1017AB14203D9B9
:10325000406850F8260040B143F2020005B0BDE8D6
:10326000F08FA5211820FFF7ABFC194602980CF04F
:103270002EF9804658460E990CF01FF9054608EBCA
:103280000500001D87B22068A146394600680CF091
:1032900069F804001AD0678025802946201D0E9DFC
:1032A00007465A46092300950BF0D6FF2088414671
:1032B00038440A23029ACDF800A00BF0CDFFD9F8CC
:1032C0000000406840F826400020C7E70420C5E71A
:1032D0005800002070B5144C23688BB1197A8142D4
:1032E00012D95A6852F8201071B1002542F82050C6
:1032F0004A8818680CF08EF8216800200A7A0CE0E1
:10330000C6211820FFF75CFC43F2020070BD4B6839
:1033100053F8203033B9401CC0B28242F7D8086855
:103320000CF06DF8002070BD580000202DE9F04130
:103330000D46040090464FF0000606D00027A00777
:1033400005D086211820FFF73BFC0127F7E7CDB118
:10335000114600200CF037F80C3000EB85068FB9D1
:103360000A4F04F10C00AA003C602572606000EB7B
:1033700085002060002160680FF0F9FC4146386844
:103380000CF021F83046BDE8F08100005800002024
:1033900070B5084D286800280AD0002404E02046B3
:1033A000FFF798FF641CE4B22868007AA042F6D8C0
:1033B00070BD000058000020094910B50246096898
:1033C000002049B10B7A934205D9496851F822107F
:1033D000002900D0081D10BDEC211820FFF7F0FBDC
:1033E000580000200A4910B502460968002059B16A
:1033F0000B7A934207D9496851F82210002902D06C
:1034000031F8040B084410BDFA211820FFF7D8FB4F
:103410005800002070B51E4B456804460022A1B13B
:1034200001206070588881085FF0000004EB4003C1
:1034300004EB80061A83198400FB01537360231880
:10344000401C1A750428F1D370BD62705FF0000053
:1034500004EB40010A830A8404EB80014A602118CE
:10346000401C0A750428F3D35888B0F5FF7F01D2B9
:10347000460800E0FF260CF09EF8656020842918BD
:10348000A1606684E560A0842161E68470BD0000CF
:103490005C0000202DE9F04158B100251144244E74
:1034A000CCB200273470810705D04E210920FFF7E8
:1034B00087FB0125F2E71F2B04D84FF6FF7101EAC5
:1034C000830109E05900FF2B0CD903F1FF02B2EB95
:1034D000430F00D2114689B24FF6FC72C91C11404D
:1034E00035B107E07C22B2EB430FF4D37C21F2E745
:1034F0007060718004EB840207EBC20300227668DF
:103500004FF0010C0DE04DB902EB820700EB030E0A
:1035100006F837C006EBC707C7F804E0521C0B4497
:10352000D2B2A242EFD3DB1D23F00700BDE8F08149
:103530005C00002070B5104A00205168127814E039
:1035400000EB800311F833306BB100EB800011EB1E
:10355000C0040CD00025A57001212046FFF75AFFBA
:103560002570204670BD401CC0B29042E8D3A9210E
:103570000920FFF725FB00005C000020044810B57F
:10358000408884080CF017F8844200D3204610BD10
:103590005C00002030B50D4901204860821EC1F852
:1035A00008230B4988600023C1F80032C1F80823C2
:1035B000084C2360251D28608860C1F8082323601B
:1035C000286006490448086030BD000000E0004063
:1035D00000F0004000F500400000F63F08F5014013
:1035E00010B5FFF7D7FF0CF0BDF80349014808609C
:1035F00010BD00000000F63F08F5014010B5FFF7D0
:10360000C9FF0CF0AFF800F087F8054903480860DF
:1036100000F0B8F8BDE8104000F0DCB80000F63F5C
:1036200008F501402DE9F84F824638480FF043FA7B
:10363000DFF8D8B028B101260BF10100FF2101709D
:1036400000E000264FF48075314C4FF000082F1D2C
:1036500001216160C4F80081C4F80481C4F804A5A4
:103660002160DFF8B0901CE0D9F80000C00618D542
:103670000E200CF086F8EFF31080009072B6032154
:103680002046C4F8041329460CF088F830B93946AE
:1036900020460CF083F808B90FF0A4FA009800B99E
:1036A00062B6294620460CF079F828B939462046FA
:1036B0000CF074F80028D7D0394620460CF06EF88C
:1036C0000028C5D106BB9BF801108DF800100099A9
:1036D00000919DF8001009B1012500E000250BF1D3
:1036E000010080F800800320C4F80803C4F80481B6
:1036F000C4F800810E200CF044F804480FF0F2F9F1
:1037000015B11120BDE8F88F0020FBE76003002011
:1037100000E0004010ED00E010B506480FF0DEF9C3
:1037200018B127211D20FFF74BFA024800214170F4
:1037300010BD00006003002070B511490A68EAB1AD
:1037400000231D4601244A68521C4A60092A00D3FE
:103750004D600E7904FA06F20E6816420BD0EFF3B4
:10376000108372B60C6894430C6003B962B6496862
:103770000160002070BD5B1C092BE4D3052070BDE7
:103780006400002002480021016041607047000091
:103790006400002010B5044C2078FF2803D00AF004
:1037A00085FDFF20207010BD0000002010B5084CE2
:1037B000617809B10F2010BD0AF03EFD2070FF288E
:1037C00001D0002010BD73211F20FFF7F9F9000080
:1037D00000000020014900204870704700000020D0
:1037E0000648074A818C5288914204D190F8220001
:1037F00008B100207047012070470000681A0020BF
:103800004C03002001494880704700004C03002011
:103810000848094A818C5288914209D14FF6FF71BC
:10382000818410F8221F19B1002101700120704716
:1038300000207047681A00204C030020074810F849
:10384000221F012907D00121017005480349008882
:10385000888401207047002070470000681A00200B
:103860004C0300200649074B8A8C5B889A4205D19D
:1038700091F8222012B101600120704700207047AA
:10388000681A00204C03002009498A8CA2F57F4366
:10389000FF3B02D00021016007E091F8222004499B
:1038A000012A02D00160012070470020704700000B
:1038B000681A002001490880704700004C0300206E
:1038C0000549002081F822004FF6FF7088840349E3
:1038D0000880488070470000681A00204C030020D0
:1038E00005498A8C824205D1002081F822004FF6DA
:1038F000FF70888470470000681A00200A4A10B1DF
:10390000012807D00EE0507860B1D2F802000860BC
:10391000D08804E0107828B1906808609089888089
:10392000012070470020704762030020084A0123ED
:1039300038B1012804D1137008689060888890819C
:10394000704753700868C2F802008888D0807047BA
:1039500062030020064910B1012802D005E0487832
:1039600000E0087808B1012070470020704700008F
:10397000620300200149087770470000AA13002065
:1039800001488078704700006C0000200148C07832
:10399000704700006C00002070B50C46054600F032
:1039A0001FF918B1D0212720FFF70AF90348012198
:1039B0000CF01EFB0248C0E90B5470BD88130020B8
:1039C0006C00002001490120487170476C00002004
:1039D0002DE9F84F5B4D0A9C2E78002E6BD1002A02
:1039E00069D0002B67D0002C65D005F11406C5E91D
:1039F0000F0186E81C0000276F712F71AF706F7088
:103A0000EF70AF81EF8100F03DF9064600F034F928
:103A1000044605F0F5FF05F04DFD94F96E0006F043
:103A200073F8E06906F056F9606906F049F996F80E
:103A3000330006F07FF905F13C00406890F81A0267
:103A400008B105F05DFF94F86B10012005F09CFEB5
:103A5000002870D03C4805F003FF2088FFF7C2FC27
:103A600068632088FFF7A8FC06F18802A86392E843
:103A70000C11DFF8D89089E80C11D6F89820C9F815
:103A80001920D6F89C10C9F81D1000F033F9014632
:103A9000208FBA460CF009F8A18E814200D2084668
:103AA000A871A84694F86B10E08F96F82370A58F44
:103AB000082904D102E040F2451140E004210BF056
:103AC000F4FF0FB9001D80B2854200D22846C5B26E
:103AD00088F8075088F8085096F82300D04690B12F
:103AE000012789F81870D6E92012C9E9041294F860
:103AF0006B000BF0DFFE03462A4614493846CDF82A
:103B0000008005F043FC012000F054FB10480068E1
:103B1000032812D00B2810D00C480E2200214A3066
:103B20000FF025F90948B18A4A3041802188018087
:103B300096F833100171BDE8F88F40F2022127207A
:103B4000FFF73EF86C000020B8430100601300202E
:103B5000501500402DE9FC418846074600F092F8D8
:103B60001A4C0546B807616A4E7816D5A06A30B37C
:103B70006289D21C0FF081F8A06A6062694601AACE
:103B8000A06B0BF0E6FA00980BF099FAC8F8000069
:103B900031460122A06B0BF049FAF8070DD0D5E9A8
:103BA00020011835401C41F10001C5E91A0115F842
:103BB0001809012808D001202876BDE8FC8140F2D0
:103BC00066412720FEF7FCFF0020F5E76C0000208F
:103BD0000248C089C0F38020704700006C000020BC
:103BE0000448007808B10C2070470349002008778A
:103BF000704700006C000020AA1300200C4810B58C
:103C0000017849B100F13C010078022808D040F267
:103C10001E212720FEF7D4FFBDE8104000F0D8B9E0
:103C20004868D0F83002BDE8104005F021BE000021
:103C30006C000020F8B5002605464E701D20094F87
:103C40000C4608702E720E223946201D0FF015F812
:103C5000287A8DF80000009800909DF80000002858
:103C6000F0D1F8BDB8130020024A93890343938131
:103C7000526910476C0000200148406870470000FE
:103C8000A80000200148406880307047A80000204C
:103C9000014A0021526910476C00002070B50546AA
:103CA000012918D8124CA1698847A0B1207990B990
:103CB000E5B904F110000178C80605D4E06A00787F
:103CC000C00601D4012000E00020A26A2AB962895E
:103CD0001AB1C90601D4012070BDA1898A0703D594
:103CE000226AD278022A01D00843F4D1002070BDA4
:103CF0006C00002010B5FFF7BFFF0446FFF7C2FFBE
:103D00000246417F1648252910D026290ED0927FE1
:103D1000252A0BD020290DD021290BD0232A0FD002
:103D200094F86A00042800D1082010BD406890F87B
:103D3000CE120EE0232A03D0406890F83E0105E041
:103D4000416891F83E0191F8631008400BF0A8FD1E
:103D5000014694F86A00BDE810400BF0B9BD0000C0
:103D6000A80000202DE9FF5F8B468146FFF78AFF00
:103D70000026664C07468DF8086003960196207869
:103D80003546022804D040F2EA412720FEF718FF0A
:103D9000A07B400606D44020FFF77AFFE08940F080
:103DA0004000E08197F82300B9F1000F3AD080B1CC
:103DB00005F0BAFB05F094FB58B9606A417841B14F
:103DC0000078397EC0F3C000884202D101206070C3
:103DD00097E0606A4178618121B1A06B0BF08FFAA6
:103DE000A06200E0A562E08940F48070E081606A32
:103DF000F97D0078C0F38000884207D003A800F066
:103E00008BF9E08940F48060E08100E00126606A7F
:103E1000397E0078C0F3C00088420DD102A800F0BE
:103E200031F909E008B105F079FBA078401CA070D9
:103E3000E08940F40070E081DFF8D0A097F822001C
:103E40000AF13C0A90B1FFF717FF31490D76D7E927
:103E50001E23C1E9042390F86A000BF02BFD0346F2
:103E6000FB222B492846009505F090FA4FF00008F8
:103E7000BBF1000F04D1A1780120FFF70FFF20B1A3
:103E800005F00AFF4FF0010802E0002000F0D0F931
:103E90009DF8080018B101A90220FFF75BFE1C483D
:103EA000BA8A4A303EB11AB9C2880AB9028912B137
:103EB0004289521C4281B9F1000F08D0C188491CC7
:103EC000C1801248A5703C3001F060F902E0018920
:103ED000491C0181039840B10BF0F1F8DAF80410A5
:103EE000401C05720E220CF001F9019830B1DAF88D
:103EF000041005722A2201980CF0F8F8B8F1000FAE
:103F000001D000F065F8BDE8FF9F00006C000020C4
:103F1000601300202DE9F84388468146FFF7B2FE82
:103F2000294D04462878012804D040F27541272005
:103F3000FEF746FE207C0027012628B127740021C9
:103F40000420FFF791FEA674296A0878C043800711
:103F500009D1A07D88BB0220FFF786FE286A007881
:103F6000C043800729D0286A407810B10220A0758C
:103F700000E0A67594F8230098B1FFF77DFE134981
:103F80002D7A0E76D4E92023C1E9042390F86B0042
:103F90000BF090FC03462A460C493046009705F08A
:103FA000F5F938EA090004D000210846FFF776FE4B
:103FB00028B1BDE8F84300F00BB80320D7E7BDE80F
:103FC000F843002000F0F6B86C00002060130020D9
:103FD00010B505F04FFB05F06DFA0D4CE089FFF7C9
:103FE00057FE0C48007F58B10A490E2201F10E001D
:103FF0000EF043FE0748242207491D300CF08AF8D2
:10400000E2692179607890470020207010BD00009F
:104010006C000020AA130020353C0100084810B5B0
:104020000078022804D040F24D212720FEF7C8FD79
:10403000044901200873BDE81040FFF7C9BF000024
:104040006C000020AA13002030B404460C48007A0B
:104050000BB1001DC0B23AB9FF2805D194F86B200E
:1040600094F86A309A4209D021B194F86B1030BCB0
:1040700005F036BEFF2094F86A10F8E730BC7047B0
:104080006C0000202DE9F0410746FFF7FBFD214CB5
:1040900005460126616A087800F0030001280CD06B
:1040A00002280AD003281BD12E74E08940F4006056
:1040B000E0810120FFF7D8FD12E0487880B1E18966
:1040C00041F40061E181A16A002918D0FB2818D8C9
:1040D000607920B1BDE8F0412020FFF7D9BD3E70E6
:1040E000287E012812D02E76606A4078002806D0FB
:1040F000F5E92001401C41F10001C5E90001BDE8DE
:10410000F081207940F010002071F8E70020287637
:10411000EAE700006C00002070B50546FFF7B2FD2D
:104120000446807D00282DD002280CD11B4829464A
:10413000406B0AF053FF30B3D4E91E01401C41F13B
:104140000001C4E91E010025A575A07C20B1A5745D
:1041500000211020FFF788FD607C70B16574FFF7C7
:1041600057FB98B100210820FFF77EFDD4E91E011E
:10417000401C41F10001C4E91E01E07D01280AD084
:104180000120E07570BD40F2E33101E040F2FA3108
:104190002720FEF715FDE57570BD00006C000020BE
:1041A00003480078002801D0FFF712BF70470000D5
:1041B0006C0000202DE9F0410646FFF75DFD8046CA
:1041C000FFF760FD184C05463246E06A606295F8DC
:1041D000233001214046FFF737FF95F823000027E1
:1041E00070B1206B05F0B2FC104801210176D5E9D1
:1041F0002012C0E90412216B606A05F019F904E08D
:10420000606A05F0A3FC05F055F916B9384605F0CB
:1042100053FB002198F86A20084605F01FFD022094
:104220002070BDE8F08100006C00002060130020C9
:104230002DE9FC470446FFF725FD0546FFF71CFD69
:1042400000278DF800700646DFF8649195F823305A
:1042500022463946FFF7F8FEA87D4FF00108A9F184
:10426000200440B1012820D002282FD003283BD0C1
:1042700040F2FF2157E0A0795021ADF804008853A7
:104280004846FFF7EFFA30B18020216AFFF7ECFCD7
:1042900085F811802CE06A4601A9606B0BF022FBC7
:1042A000206210B195F85B1011B1424820621FE006
:1042B0009DF8001021B90780877001210BF098FE4E
:1042C000BDF80410206A0BF01BFE11E0B6F8500098
:1042D000ADF804006A4601A9606B0BF003FB206295
:1042E00030B940F2E9211EE04846FFF7BBFAC0B101
:1042F000206A0823017801F0F7010170EA7D03EAE2
:10430000C202114301F0FB0101702A7E042303EA7B
:104310008202114301F0EF010170C943890705D002
:1043200007E040F2F2212720FEF74AFCC07802287D
:104330000FD0606B0AF050FF08B101210AE0206A3B
:104340000078C043800704D0FFF74AFA80F00101EB
:1043500000E00021206A027842EA0111017095F81C
:10436000221081B1417871B1206B05F0EFFB11484B
:1043700028380776D5E91E12C0E90412216A206B9D
:1043800005F056F803E005F0E1FB05F093F896F828
:104390006B200121002005F061FC84F80380216A74
:1043A0000A8822828978A17484F80080BDE8FC879D
:1043B0008C000020881300201D400100653D010095
:1043C000153F0100A141010000487047611C002019
:1043D00004498A78824203D9084490F8430170471F
:1043E000002070478E1A002004498A78824203D93F
:1043F00001EB001083307047002070478E1A0020B8
:10440000054A01EB410102EB41010268C1F80B21B1
:104410008088A1F80F0170478E1A002004498A781D
:10442000824203D901EB0010C01C70470020704786
:104430008E1A002010B540F2D312002108480EF069
:1044400096FC0822FF2107480EF091FC0548002148
:10445000001F017041704FF46171418010BD000078
:104460008E1A0020540300200B4B10B59C78844218
:104470000FD9184490F8030103EBC00090F85331B2
:104480000B70D0F854111160B0F8580190800120E1
:1044900010BD002010BD00008E1A002007498A7848
:1044A000824209D9084490F8030101EBC00090F85A
:1044B0005A0100F001007047002070478E1A00205A
:1044C00001484088704700005003002005498A7861
:1044D000824203D9084490F83B0108B1002070479C
:1044E000012070478E1A002070B50D46064600F078
:1044F000C1F8104C102807D004EBC00191F85A11F4
:10450000C90701D0012070BD6178082910D2102898
:1045100008D004EBC000012180F85A116078401CDB
:104520006070EFE701222946304600F087F8F5E792
:10453000002070BD8E1A002070B50B4D2878401EEB
:1045400044B20AE005EBC40090F85A01C00702D05B
:10455000E0B200F0EDF8641E64B2002CF2DA034918
:104560000020487070BD00008E1A0020500300200B
:104570002DE9F04100242546184E29E006EBC50739
:1045800097F85A01C00721D0284600F043F80346A7
:10459000FFF744FF01460020102B09D0F21892F8D3
:1045A0003BC1BCF1010F02D092F84B2102B10120B6
:1045B000401E01420AD10A4807F5AA710355204658
:1045C000641C97F85321E4B205F06EFC6D1CEDB24B
:1045D0003078A842D2D8BDE8F08100008E1A0020C1
:1045E000540300200246094810B500780B4658B124
:1045F0000748817841B10BB1C01C01E00448833009
:1046000004F01EFE012010BD002010BD500300204C
:104610008E1A0020084910B5034600208A7806E06B
:104620000C1894F803419C4204D0401CC0B2824252
:10463000F6D8102010BD00008E1A002070B50C4B6B
:1046400004461878451C1D70102803D346212820E5
:10465000FEF7B6FA03EBC0030D68C3F8545189881E
:10466000A3F8581183F8534183F85A2170BD000014
:104670008E1A0020F0B51A4C0346002025782AE057
:1046800004EBC0020F7892F854C192F8536187EAA4
:104690000C075E403E444F7892F855C187EA0C07FC
:1046A0003E448F7892F856C187EA0C073E44CF7893
:1046B00092F857C187EA0C073E440F7992F858C127
:1046C00092F8592187EA0C073E444F795740F74248
:1046D00004D0401CC0B28542D2D81020F0BD0000EA
:1046E0008E1A002070B50546FFF794FF10281CD1E4
:1046F0000E4C2078401EC0B22070A84215D004EBAA
:10470000C00204EBC50102F58070D2F85321C1F854
:104710005321D0F85700C1F857012078FFF77AFFEE
:10472000102802D0204480F8035170BD8E1A00205A
:1047300005494A78521E4A7001EBC001002281F8F7
:104740005A21FFF7CFBF00008E1A00202DE9F04755
:10475000044600F180054FF0010971B104F1A6078C
:104760007E1E012925D002294AD003291FD13946AE
:104770003046BDE8F0470BF0E8BA4FF43E72002136
:104780000EF0F5FA85F825902248E866072028679C
:1047900014F8EC0F20F004002070FE2085F8A6002D
:1047A0007F2068761C48A8600020C5E90000BDE8AD
:1047B000F0874FF00008A4F8368284F82B82216934
:1047C00016480A460844B0FBF1F0C4F8C40040F6AD
:1047D000B830A4F8C800638B284600F021F83946A9
:1047E00030460BF0B2FA0EF0D9F918B1606900F05A
:1047F00053FB10B184F81A82D9E784F81A92D6E7ED
:104800000169B4F8DA32D4F8D4222846BDE8F0477A
:1048100000F006B82F49043400E0FCFF7FC3C90153
:1048200010B50024A0F84C4030F8504F4C43B4FB76
:10483000F2F420F8104940F27124634302EB0313B1
:104840005B1EB3FBF2F3C381094BB3FBF2F35B1CBA
:1048500083820389634302EB03135B1EB3FBF2F312
:10486000436003684B43B3FBF2F1016010BD0000ED
:10487000005A6202024991F900100BF017BA0000C9
:104880007003002008B57F208DF80000684605F011
:104890000BFA40B105484078404241B29DF9000012
:1048A0000BF004FA08BD9DF9000008BD700300205C
:1048B00070B590F8322090F83130012403FB0121CB
:1048C0002522B1FBF2F302FB131100EBD10280F8B9
:1048D000321001F0070392F8262004FA03F31A427B
:1048E00004D000BF80F83310002070BD90F8302055
:1048F000B1FBF2F302FB1311491CC9B20023C51826
:1049000095F82B208A4212D395F82650002200BF3A
:1049100004FA02F6354201D0491EC9B221B1521C37
:10492000D2B2082AF4D304E002EBC301DAE7891A11
:10493000C9B25B1CDBB2052BE1D31F2070BD0000A8
:1049400070B5491C0023C9B20124C518AA798A424E
:1049500012D395F80150002204FA02F6354201D034
:10496000491EC9B221B1521CD2B2082AF4D305E0C3
:1049700002EBC300C0B270BD891AC9B25B1CDBB2C6
:10498000052BE2D39D214620FEF71AF9417841B16B
:10499000C0782B2803D2044A105C884201D1012040
:1049A0007047002070470000B82E020010B50122A9
:1049B000C1702B2902D2064A525C06E0FF2904D0BE
:1049C00040F275412A20FEF7FBF8427010BD00004E
:1049D000B82E02000449897C490700D408B10020A0
:1049E0007047012070470000581500200348807C64
:1049F000800701D40120704700207047581500201F
:104A00000348807CC00701D0002070470120704718
:104A1000581500202DE9FE43884699461546044660
:104A200069460AF0A2FFE0BB019E002780367DB1F7
:104A30002046FEF7D7FC04000ED029460AF09EFB64
:104A400018B11B494988A94208D20020BDE8FE835D
:104A5000012086F8240024E0672125E0014602AA0F
:104A600020460AF084FB02980780877096F824108D
:104A700009B14FF0020841460BF0BAFA02982A46F3
:104A80004946C01C0EF0F9F8204629460AF02DFBD5
:104A900048B168460BF007FB0198A0F8227286F82F
:104AA00024700120D2E77C212B20FEF789F800003A
:104AB00058150020094882B0007A8DF8000000984F
:104AC00000909DF80000002805D102220449034807
:104AD00002B00BF00BBB02B0704700007015002055
:104AE000330102002DE9F84FDFF89881DFF898A133
:104AF00083464FF001090026D8F80400007A8DF8AB
:104B00000000009800909DF800102A2906D19AF81C
:104B1000131019B1BAF8140000287DD000278DF8C1
:104B20000060684600F012F99DF800100029F8D1E5
:104B3000002871D00446007A8DF80000009800909B
:104B40009DF80050A81E302867D2DFE800F0182733
:104B500085218585276F696F6F6F2D6F852185850D
:104B60006F6F21858585856F4585856F216F6F8581
:104B70006F2185854F55758585858585854F62684B
:104B800012B94FF4D27164E05946204690473CE098
:104B90006268002AF8D140F2BB115AE06268002A2C
:104BA000F2D140F24B2154E060685D4680B1048848
:104BB0002046FEF717FC68B16E700D222A70EC805B
:104BC000A5F80890314685F804900AF06EFB57E08E
:104BD000CE213EE0AE213CE0626822B1594620463B
:104BE0009047012711E040F2632132E06268002A19
:104BF000CAD140F26F212CE08BF8016016218BF8AE
:104C00000010D4F80910CBF804102672212D26D0FC
:104C1000142D27D0222D01E017E01DE029D02DE032
:104C20006268002AB0D140F2812112E06268002A55
:104C3000AAD140F296210CE01448026822B16068C3
:104C400028B10088594690470220BDE8F88F40F20D
:104C50009F211020FDF7B4FF40F2BD21F9E7FFF7D7
:104C6000C5FE08E09BF80E0000F00100FFF7B2FE61
:104C700001E0FFF7C5FE00287FF43EAF002FFBD117
:104C80000420E2E78415002058150020B000002021
:104C90000149087000F0B0B87203002002490148D1
:104CA00008607047AD4C0100B000002038B50D0021
:104CB00014D0A88000216972FEF77EFB04460AF03A
:104CC00038FA68B101466A4620460AF050FAE88090
:104CD00048B1FB280AD94FF4867132E0FC2130E05C
:104CE00040F205112DE04FF485712AE000980BF099
:104CF0002BF9012804D0022802D04FF48E7120E055
:104D000028722868A8B10099EA88C91C0DF0B5FF7F
:104D100020460AF0D6F978B1204600210AF0C5FAFB
:104D200068B10948C17C002902D0818A491E81826C
:104D300038BD40F2231104E04FF4947101E040F2D9
:104D40002D111020FDF73CFF5815002038B5024604
:104D5000114B002010705868017A8DF800100099EE
:104D600000919DF800500124012D06D0EFF3108131
:104D700072B605685D6011B102E0002038BD62B610
:104D8000017A8DF80010009900919DF80030002BF9
:104D9000F4D1147038BD00008415002038B5D0B1AE
:104DA000416000F108010A70EFF3108372B6104CF5
:104DB0000460211F4A684AB1127A8DF80020009AD7
:104DC00000929DF80050012D00D10C600A6810601F
:104DD00008602BB105E040F2E2211020FDF7F0FE63
:104DE00062B604480078BDE8384009F043BA0000D4
:104DF0008815002072030020084810B50021416189
:104E00008161C161016212220DF0B1FF03481430CB
:104E100001210173011D4160016010BD701500206A
:104E2000F0B450810C89134694818A89DA814889CB
:104E30001882CD895D82CE8DAE4208D14D8D8542DE
:104E400005D10D8E954202D18A8DA24201D0012258
:104E500000E000221A754885588AC8859889888597
:104E6000D8890886F0BC1422014918460BF052B9C3
:104E7000F10202005081888A9081C88AD081088B13
:104E80001082488B134650822122024918460BF0AB
:104E90002DB9000027030200F0B56FF01F02010CCE
:104EA00002EA90261F25A1F5AA4054380DD0A1F59D
:104EB000AA40553809D0A1F52850AA3805D0A1F547
:104EC0002A40AA3801D0012000E000200022134629
:104ED0004FEA020482EA0107FF431F437F1C0FD001
:104EE00006F00107520842EAC73205F001075B08E5
:104EF00076086D08641C43EAC733162CEAD3F0BD6C
:104F00000020F0BD10B504480BF071FA0248BDE86E
:104F1000104008300BF06BBAB4000020014800F0DC
:104F200009B80000B4000020014800F003B80000F8
:104F3000BC00002010B5D0E90021094B094C5343B7
:104F40005443514081EAB21282EA41224FEAF141D0
:104F5000C0E9002143EAD46303EB8303184610BD84
:104F60006037EFC6BB79379E10B54068002290F8D5
:104F70008C308030091DDB0701D0012010BD0C7979
:104F80000B6809490B4004F00701C3660167A0F8EC
:104F9000582090F85A10491C80F85A10C16841F006
:104FA0000101C160002010BD2F49043710B5041D58
:104FB00004F016F9034A01F0070110402060616017
:104FC00010BD00002F4904372DE9F84303784068ED
:104FD0000F1D00F1800500F5A57406464FF000088E
:104FE0006A7F072128460AF0EAFCB0B13868154A02
:104FF0003979104001F00701E866296785F8568085
:1050000085F81D8094F8681040468DF800100099CE
:1050100000919DF8001091B902E00120BDE8F883ED
:105020003188A4F86A1084F869003968E166796803
:1050300021670822044904F160000BF057F80020B2
:10504000ECE700002F4904375B05020070B50D1D29
:10505000446804F0C5F8064A104001F0070294F8CD
:10506000EC10014061F3070028606A6070BD000029
:105070002F490437416882B001F5A57091F8B2213B
:105080008DF80020009A00929DF80020002A0BD194
:105090000988A0F86A101A2180F8691008220349CB
:1050A000603002B00BF022B802B070475B0502001E
:1050B00070B544680D46037894F89D20803400262E
:1050C000082120460AF07BFC20B9207B800701D50F
:1050D000012070BD94F85D00800719D428460AF0BD
:1050E000A1FF84F8670035F8050FA4F86800688808
:1050F000A4F86A0094F85D0040F0020084F85D00B6
:10510000C00709D00322114904F15E000BF002F838
:1051100094F85D00C00710D1E068810703D54F21E6
:105120004020FDF74DFD40F00200E06094F85A0089
:10513000401C84F85A00A4F85860607F012802D10E
:10514000667784F85660002070BD00008905020073
:10515000074900F500600013097840B2494249B29E
:10516000084400F30700002800DC0020C0B27047AC
:10517000C4000020044A9268C2F580534B43424366
:1051800003EB223070470000C4000020F8B54468EB
:10519000064604F1800500F07FF894F828100129F4
:1051A0001AD1002818D0706890F852118DF80010AC
:1051B000009900919DF8001000F5A57000290BD111
:1051C00021884181697E0173A97E4173BDE8F84061
:1051D0001F2202490AF08ABFF8BD00002B06020018
:1051E00000F500610D4A10B500F5006009130013C9
:1051F0004BB292F900404042002140B2A34202DA91
:1052000092F9021005E092F90140A34204DD92F9FF
:105210000310084400F30701084610BDC400002035
:105220002DE9FC4100224A70A0F5FA750A70A0F53C
:10523000BA7495F86B000CF013FA0646A068FFF7F5
:10524000CFFF070021D020460BF0F7F900281CD033
:10525000288869460AF089FB18B189217A20FDF770
:10526000AFFC761CF1B202233A4668460CF017FAFE
:1052700000280AD1064807490079A0FB016507F01C
:10528000EBFD80196941C4E90001BDE8FC81000023
:10529000C400002040420F002DE9F0410746FFF70F
:1052A000F1FA7C68054684F8990080347F283CD068
:1052B00094F833007E68A0762946A068FFF75AFF6D
:1052C000A0601B48407990B1786800F18008D0F860
:1052D0008800FFF785FF50B140460BF0AEF930B1C2
:1052E00078683122134900F5FA700AF013FF94F937
:1052F0001B000021281A00D5404296F8292082423E
:1053000010DCFF2A0ED0207F401CC0B2207796F818
:105310002A20904202D8E07E7F2803D10020E57643
:10532000207701210846BDE8F0810020FBE700005E
:10533000C40000202152010070B50446007C00B377
:1053400002281ED05FF0010004F1510184F85000E2
:105350000D46C0B1E07DF0B1D4F81100C4F85100A1
:10536000B4F81500A4F85500207C0BF08FF92076D6
:105370000820607694F8500029460BF073F9A8B91C
:105380000EE00020E0E70020FEF7B8FA0028EBD19D
:1053900040F2B94101E040F2BD412D20FDF710FC83
:1053A00094F8500029460BF066F900B10120A07670
:1053B000207E30B194F8570004F158010AF0A1FAA8
:1053C0006076FFF77DF80C49A0FB012304F148004B
:1053D0000BF0E1FA002120460BF096FA002084F849
:1053E0005E00A078400705D52046BDE8704000214A
:1053F00000F0D0BD70BD000040420F0030B50C463B
:105400008DB005460146242202A80DF036FC0BA8FB
:105410000BF01EFBA07A8DF8180020788DF808009C
:10542000B4F80100ADF800009DF8000000F00101A3
:10543000C0F3400241EA4201C0F3800241EA820126
:10544000C0F3C00241EAC201C0F3001241EA0211F6
:10545000C0F3401241EA4211C0F3801041EA8010CB
:10546000ADF80A00207D012806D0022804D040F2C1
:10547000EA210620FDF7A4FB8DF80C00617A0BA849
:105480000BF0CDFA207D0121022802D1607D401C65
:10549000C1B2A07E401CC2B20BA80BF087FABDF8C7
:1054A0000A00000701D5002020E00BA80BF090FABD
:1054B000BDF80A10282200F011FE40F2712100F21E
:1054C000D920B0FBF1F04843D4F8021040F2712328
:1054D0000A0A40F271214A43D4F80510090A5943D7
:1054E000904201D8049204E0884201D8049000E080
:1054F0000491A07C8DF81700207E012800D00020A8
:105500008DF81400686B0AF064F8686B0AF009F90A
:10551000242202A928460DF0B0FB0B98A862BDF822
:105520003000A885E07A68B102280BD05FF0010056
:1055300085F85700E068A865208AA5F85C000DB0E2
:10554000002030BD0020F3E70A4A10B50021117099
:10555000094C606000F022F810B140F22D3104E0F7
:10556000A068002804D14FF44C712D20FDF728FBD2
:1055700010BD000094150020D00000200249014811
:1055800088607047C4600100D000002002490860B4
:105590008968096808470000D0000020084810B555
:1055A000007810B10C24204610BD0024182221469A
:1055B00003480DF0DCFB04F035F803F059FEF2E788
:1055C00094150020044910B50978012901D100F093
:1055D000B5FB002010BD00009415002002490148D1
:1055E00008607047695E0100DC00002010B50446C9
:1055F0008078C0F3C00058B13C23FF222046E16907
:1056000000F0C2FB1122044904F16C000AF06EFDA7
:10561000012084F8690010BDA10802002DE9F041C5
:105620000F00044623D004F1280005460BF0F9F9D9
:10563000B0B9A078C0F3C00050B328460BF0C8F949
:10564000064628460BF0EDF9301AC0B20BF03EFAD0
:105650000146354842681144416028460BF0FFF985
:1056600028460BF0C1F9014620460BF089F92F4D71
:1056700094F85E600021686801800BF0E7F86088AC
:10568000132813D009DC102836D0122809D131E0B4
:105690002046BDE8F04100F051BB15280FD01D2871
:1056A0000DD040F272612D20FDF78AFA0021686862
:1056B0000AF0A3FB012168680BF0C8F820E0012183
:1056C00068680AF09AFB012168680BF0BFF836B1F0
:1056D00004F15F0168680AF0ABFB012106E004F108
:1056E000580168680AF0A4FB94F8571068680AF03B
:1056F000A5FB05E0062100E0022168680AF07DFBB9
:10570000204600F0BDFC60881D2807D0152805D074
:1057100094F83C20A16B68680AF05FFB394620468C
:10572000BDE8F04100F0F6B994150020D00000204B
:105730002DE9F0412F4D80462878022805D02878A1
:10574000032802D040F62D512BE02B4C2668307BED
:1057500018B1FFF797F886F82E00D4F804C0002798
:10576000B8F1000F9CF8000000F00F0627D0216868
:10577000C00901F1510391F850200CF109010AF020
:1057800028F8E0B1394660680AF017FBB8B12A780A
:1057900020683146022A07D02A78032A04D040F62E
:1057A00006512D20FDF70CFAA2682B7852696FF094
:1057B000070606EB8303D2589047064600E0012611
:1057C000A87B18B103F02EFF03F052FD002E0FD07E
:1057D00020680BF091F930B103F04CFFA0688068AD
:1057E000BDE8F04100472068BDE8F04100F0A6BAEE
:1057F000BDE8F08194150020D000002010B50329E9
:1058000002D005290AD102E000F092FB03E004492E
:10581000096809B1884708B1002010BD012010BDFA
:10582000DC000020094A0300106801D000F086BAAD
:10583000002909D09168064A096912786FF00F03B0
:1058400003EB82028958084770470000D00000200F
:105850009415002070B504464088102819D0104DCA
:10586000A87B20B103F024FD402003F0E9FE0D48A1
:10587000406804F06BF9A078400704D40021227935
:10588000084604F0EBF9002004F016F80220287016
:1058900070BD2046BDE870400121FFF7BFBE00008B
:1058A00094150020D000002010B5124C206800F0A4
:1058B00025F820680BF020F9002820680BD00E494D
:1058C0000A78022A0BD00A78032A08D040F637411A
:1058D0002D20FDF775F9BDE8104000F02FBAA26841
:1058E0000978D2686FF0070303EB81015158BDE8D6
:1058F00010400847D00000209415002010B5017B0F
:1059000021B10446FEF7BEFF84F82E000548807BD7
:10591000002805D003F086FEBDE8104003F0A8BCC7
:1059200010BD0000941500202DE9F0415D4D0446A6
:1059300086B0287800284ED12078FF284BD04FF031
:105940000008A5F80C80C5F8048085F8018085F86A
:10595000028084F86980544B544E0FCB8DE80F00C1
:10596000B06840680390684603F07AFF04F048F896
:1059700004F0CAFA03F056FE03F07AFC4C4804F037
:105980009FF94C4804F0A6F904F1280007460BF0F3
:1059900066F838460BF028F8014620460AF0F0FF7A
:1059A00094F90E0004F0B0F82179002003F0ECFE29
:1059B0000121A86098B104F13801606B09F078FE0C
:1059C000074604F14001606B09F075FE4FB194F891
:1059D000201051B905E00C2006B0BDE8F081297017
:1059E0005EE020B194F8210008B1012700E0002713
:1059F000A07E20B9207E10B9A078400723D5D4E935
:105A000012106FF00042504070EA010106D007F01A
:105A100023FAD4E91223801A994100D29FB1FEF7EC
:105A20004FFD2549A0FB012304F148000AF0B3FF14
:105A3000012120460AF068FFA078400703D5012124
:105A4000204600F0A7FAFEF793FD7068C01C09F02D
:105A50004BFFA873A078C00722D0CDF81080FF209C
:105A6000CDF81480E873E66906F10A0713E0049C98
:105A7000B44210D0727A607A3B4604F10A0109F010
:105A8000A8FE40B1A078E873D4F803002861B4F808
:105A90000700A88204E004A8FDF7D0FA0028E6D0A9
:105AA000002099E794150020A4600100D000002098
:105AB000D6BE898E5555550040420F0010B504469C
:105AC000FFF732FF002808D104480078012803D0EE
:105AD00000212046FFF7A2FD002010BD94150020F4
:105AE0000A4810B50A490468087800280DD00878DB
:105AF000022802D00878032802D12046FFF7FEFED4
:105B00002046BDE8104000F019B910BDD0000020BB
:105B1000941500202DE9F041044629480D464068BF
:105B200004F014F8274E0420307055B36088102814
:105B300023D004F128008046B5680AF049FF0746E3
:105B400040460AF06EFF381A401EC0B26188282213
:105B500000F0E4FA0544A078C0F3C00030B17068EA
:105B600005440AF0B7FF2844C4F8D8002279294632
:105B7000002004F001F820B90CE02179002003F0A6
:105B8000C9FD6088132811D007DC102815D0122811
:105B900007D10BE040F6A85105E0152806D01D28D6
:105BA00004D040F6BC512D20FDF70AF82279BDE85B
:105BB000F0410121002004F051B8BDE8F08100005F
:105BC000D00000209415002038B5044690F8BC00A1
:105BD0000B468DF80000009800909DF8000000280A
:105BE0003AD1207884F8BD00FF2B10D004F1BF0219
:105BF000511E1846FEF738FC30B194F8BE0040F054
:105C0000020084F8BE0011E041F2080121E01348CF
:105C100040680178C1F3801184F8BE10D0F80310F9
:105C2000C4F8BF10B0F80700A4F8C30094F92E0020
:105C30007F280CD084F8C5007F2084F82E0004F162
:105C4000B400BDE83840202205490AF04FBA40F6BA
:105C50006C612D20FCF7B4FF38BD0000D00000209F
:105C6000F10802002DE9F04790460E46044603294C
:105C700004D094F8680008B1012000E000208146BB
:105C800003F0EAFC0546032E03D00127052E05D0BC
:105C900008E0A0780227C0F3400001E0A078C00728
:105CA000002842D0B9F1000F3ED12248807B40B19C
:105CB00009F01DFE88F80000FF2802D0FEF7EEFB79
:105CC00005431D4E94F8572004F15803716811F8EC
:105CD000030BC0F3801009F07CFD98F80010FF2939
:105CE00004D090B9607E88420FD008E038B1716866
:105CF00011F8030BC0F380100AF0B1FD28B10020A9
:105D0000A178490703D590B90EE00120F8E775B9ED
:105D1000E07B08B1B84207D1716811F8030BC0F3FA
:105D200080100AF09CFD10B10020BDE8F087012032
:105D3000FBE7000094150020D000002070B5044659
:105D4000008E104D401C2086A87B002620B103F059
:105D500069FC03F08DFAAE732E7094F8690008B1F7
:105D600001210AE0607B38B1218E884204D80121EC
:105D700020460AF0D3FE70BD00212046BDE87040E9
:105D80000AF0CCBE941500202DE9F041044680F8BD
:105D900075300888A4F87600FF2084F893004FF649
:105DA000FF7016460D46A4F89400002B4BD12869CD
:105DB00009F0ECFDA4F88C00288BA4F88E00688B09
:105DC000A4F8900095F81B0284F89200207E04F15C
:105DD00051010F46002520B194F850000AF04BFC09
:105DE00040B994F86A0070B194F8500039460AF04E
:105DF00039FC40B1D4F85100C4F88000B4F8550023
:105E0000A4F8840003E0C4F88050A4F88450154836
:105E1000FF2E40680178C1F3801184F8791050F8A2
:105E2000031F17D0C4F886108088A4F88A0004F1F4
:105E30007A02511E3046FEF717FB30B114F8790F85
:105E400040F002002070BDE8F08140F68B412D202B
:105E5000FCF7B6FE44F87A1F8088A080E5602582B2
:105E6000F1E70000D0000020F8B50446FF208DF8CF
:105E7000000001266A4605212046FFF7F3FE60B1C7
:105E8000284D274F6968FA7B07F1100311F8030BBF
:105E9000C0F3801009F09DFC10B100263046F8BD1B
:105EA0006A68E069127810F8A51FC2F34012114029
:105EB000017001222046E16900F09AF800239DF864
:105EC00000202046E169FFF75FFF1122164904F127
:105ED0006C000AF00BF9E06905220188A4F8B01003
:105EE00090F8A50084F8B200104904F1A6000AF069
:105EF000FDF80021E06939700A46214600F086FA73
:105F00006868E169D0F8032041F8032FB0F8072052
:105F10008A800078E169C0F380108870BEE70000D5
:105F200094150020D0000020A10802009108020072
:105F3000F8B50446FF208DF8000001256A460321CC
:105F40002046FFF78FFEE8B1207B20B19DF80010BE
:105F50002046FFF739FE0D4E0021706801800421B4
:105F600009F04BFF204600F08BF894F84420216C98
:105F7000706809F079FF064905200870706803F021
:105F8000E5FD00E000252846F8BD0000D000002017
:105F90009415002070B504460E46407EFEF73EFA8A
:105FA000050019D0102109F072FE002814D101203B
:105FB00084F85E0004F15F0132460C46284609F081
:105FC00038FC2146054C606809F032FF6068BDE886
:105FD0007040012109F032BF70BD0000D0000020E8
:105FE000024801210068FFF719BB0000D000002023
:105FF0002DE9F041214E80460C467068154650F858
:106000000F1F6161416821F07F41E161408909F022
:10601000B9FC0746206170683946807D09F02EFE84
:10602000A08470683946B0F8170009F023FE20629A
:10603000706830F81B1F2183418861834168C4F870
:10604000A610017A84F8AA10417A01F01F0184F8A1
:10605000B110407A400984F81B0204F16200057215
:106060004572FF218172002136380AF0EEF898F867
:106070000E0084F86E00BDE8F0810000D000002022
:1060800070B5074D044600F15101686809F0DDFE66
:1060900094F850106868BDE8704009F0DCBE00005C
:1060A000D0000020A95801003157010025580100F7
:1060B00000000000FD57010055580100850802004E
:1060C0008B080200BD5A0100E15A0100E15F0100A6
:1060D000C0600100B8600100B460010010B5421E4C
:1060E000022A01D9CA2109E0401E102909D012292B
:1060F0000CD013290AD0152905D0D8212F20FCF760
:106100005FFD054904E00449891D01E00249891F3A
:1061100031F8100010BD0000EC0A0200421E10B55C
:10612000D2B2012A03D91D2901D0EE210DE0132995
:1061300013D004DC10290BD0122904D10DE015294D
:1061400008D01D290ED04FF481712F20FCF738FDA7
:10615000074804E00648083001E00548001D30F813
:10616000120010BD40F25A3110FB01F010BD0000CA
:10617000DA0A02002DE9F041044690F8E0001646E4
:106180000F4600285ED121464D4806F055FC0546D5
:10619000202857D05022002104F1C8000CF0E7FD60
:1061A00084F8C8500125C4F8CC7084F8E05037B1A9
:1061B000FEF7BAFE00F00700401C87F84C022046AC
:1061C0000AF049FEA4F8F000022084F8F200A84684
:1061D00084F8F350002504F8E85F07F0B9FD07469E
:1061E0000CF0C1FB2189E83C884200D808463844BD
:1061F000CC3087B220460AF0F1FA30B30CF087F9C0
:1062000000F5CD6081B2304607F0C2FE3044C4F8DC
:10621000EC00903406F020FEC0196941C4E91A016F
:1062200084F8408024F86E5C01200AF04FFC00F5F1
:106230008870301A60644FF0FF304108C4E91E01D5
:10624000903C25E00C20BDE8F081002120460AF0BA
:1062500054FDDFF87080C4F8EC000020B8F804109A
:1062600049B1618C39B1FEF75FFEB8F80410B0FB9C
:10627000F1F201FB1200074406F0EEFDC01969417E
:10628000C4E93E019EB1801951EB0501C4E9420108
:1062900094F8C80004F1E8010AF0DBFD58B1A4F855
:1062A0000051002120460AF0C9FA0020CBE74FF048
:1062B000FF304108EAE74FF4F4713020FCF780FC2E
:1062C000CF0F0200E00000200149888070470000E5
:1062D000E000002005480021017001228270417019
:1062E00042F21071818000F003B80000E00000204D
:1062F0001CB50949D1E90001CDE9000102E000988F
:106300000AF020FC6846FCF799FE0028F7D000F060
:10631000A9F800201CBD0000C46B010001490870F1
:1063200070470000E000002008494FF47A72B1FB8A
:10633000F2F110B501F5257109F0A0FF40F6480112
:10634000884200D3084680B210BD00007D52010093
:106350002DE9F0410F4CD4E9026703F011FB05462B
:1063600002463946304609F017FB0646A0688642C9
:1063700005D02169301A0844206106F09FFCA66010
:10638000B54201D8607810B10020BDE8F08101204D
:10639000FBE70000E000002010B5044606292ED2DD
:1063A000DFE801F0051103141528002106E0D4F8F8
:1063B000AC0210B120460AF0DFFC01212046BDE806
:1063C000104000F0F7B8032084F85C0210BD03F021
:1063D000DDFAC4F8AC0294F86B0003F09BFBD4F830
:1063E000AC12091A084882680A448260C2681144E3
:1063F000C16010BD2046BDE810400AF0A8BC4FF4B3
:10640000E8613020FCF7DCFBE000002070B50C46B2
:10641000054612B140F26A7110E003F0B1FA01468C
:10642000002220460AF087FD94F8C8002A46054954
:1064300006F0B8F9002804D140F253713020FCF77F
:10644000BFFB70BD7110020010B50C2804D340F2E0
:106450008B310620FCF7B4FB014931F8100010BD68
:10646000E06B01002DE9FC41154D0120687000240E
:106470004FF6FF760BE0002108F0FCFF070009D083
:1064800097F8A40206F0C0F938460AF047FD0094D8
:1064900001940DE04FF490713020FCF791FB0098CF
:1064A00030B190F85C1219B10088B042E3D104E039
:1064B0006846FCF7C3FD0028F1D06C70BDE8FC8194
:1064C000E00000202DE9F047044639481E4690467A
:1064D000807889460025002863D007F00FFDE0B3DF
:1064E000B4F8480202285CD394F85C02022858D021
:1064F00094F8720288BB94F81B02FFF7A5FF00F521
:10650000C86081B2318094F85C02002701280DD068
:10651000206907F03DFDB4F836224244A2EB0901A0
:10652000D4F86422821A01FB027535E094F8A100C8
:10653000032839D00121002009F0F9FA216A47180F
:106540003188D4F8540207F023FDD4F85022D4F84F
:106550005812821A01FB025500E022E0C4F85002F2
:106560003188384607F014FDD4F86012C4F8600290
:10657000411A0D443188206907F00AFDB4F836222B
:106580004244A2EB0901D4F85822891AD4F86422B3
:10659000821A491E01FB0255C4F86402012084F8E6
:1065A00072022846BDE8F087D4F85402C6E700001E
:1065B000E000002038B500250446012902D110482A
:1065C000407870B1042084F85C0200BF0AF0CDFB73
:1065D000A4F8A252B4F89400A4F86E0284F87152A0
:1065E00038BD0095B4F8241201230022204600F0A3
:1065F00009F80028EAD040F2B5613020FCF7E0FA53
:10660000E00000202DE9FF4F8BB0044690F86B00AE
:1066100099460F46079305900BF079FF054694F8CD
:106620001B02FFF711FF2844ADF8040094F89E0008
:106630000D2804D0002008900D9810B12EE0012004
:10664000F9E794F85C02032828D1089830B3B4F82D
:10665000CC02B84222D1D4F86402C4F850022069B6
:10666000C4F85402B4F8A202B4F836120844C4F8CC
:106670005802204600F0C0FAD4F8D0022062B4F8E4
:10668000CE02A084D4F8D4022061B4F8D8022083CA
:10669000B4F8DA026083022084F85C02B4F8940053
:1066A00004F51E75381A0FFA80FAB4F8A002381AE9
:1066B0000FFA80F8B8F1000F08DAD4F89002D4F895
:1066C0009412D046C4E9A6010120079001AB5246BE
:1066D00041462046FFF7F6FE049094F85C02DFF88E
:1066E00034B340B101287DD0022851D003287AD09C
:1066F00040F243518AE10121002009F018FA0646D0
:10670000206ABDF80410304407F042FCC4F860026F
:10671000BDF80410206907F03BFCC4F8640207A927
:1067200006A803F095F8D4E9A601DDE9062306F0F2
:10673000A5FB824620460AF00AFB94F86B00D4F8C9
:10674000A88203F013FA4AF2A13101444FF47A709F
:10675000B1FBF0F0216AD4F860223144081A811AA2
:1067600041442039A1EB0A065000A18C603001445D
:1067700094F86B000AF05BFB2230CBF81400D4F8DD
:10678000A802301AB0F5DE7F58D240F2DC413DE17C
:10679000216AD4F854020844BDF8041007F0F8FB4D
:1067A000C4F86002BDF80410206907F0F1FBC4F8DA
:1067B000640220460AF0CBFAB4F8360210BBB9F1F5
:1067C000000F1FD094F86B80404603F0CFF94AF2D7
:1067D000A13101444FF47A70B1FBF0F0D4F86012AB
:1067E000084401E02BE047E0226AD4F85412114437
:1067F0000E1A404603F08EF9D4F8AC12081A06447B
:10680000203E06E0216AD4F854020844D4F860120D
:10681000461AD4F85822D4F85012D4F8600201FB7A
:1068200002004000A18C6030014494F86B000AF033
:10683000FEFACBF81400012084F85C0261E0D4F881
:1068400064222069B4F83612861A01EB0A00D4F8E3
:106850005812D4F850C2401AD4F86032401E0CFBD3
:10686000013100FB02104000A18C6030014406FBA6
:1068700008F694F86B0040E02069D4F8641200FB3D
:1068800008F008FB110694F89D00252803D094F821
:106890009E00252809D1B4F8CC02381A00B200288D
:1068A00003DB94F8CF0200B105900798D8B1B4F893
:1068B0003602C0B9D4F8AC0200287DD094F86B0041
:1068C00003F054F94AF2A13101444FF47A70B1FB5C
:1068D000F0F0361A94F86B0003F01CF9D4F8AC12FF
:1068E000081A0644203EB4F8361201EB0A00D4F828
:1068F000641248434100603105980AF098FACBF8D9
:1069000014000498DBF81420311AD4F8646220696A
:10691000801BA0F24620CBF81800824200D8104617
:10692000C4F8300200262E7064202881D4E9A62005
:1069300051187041C5E9041004F12C0009F06FFCF6
:10694000D4F8301208446860D5E90401C4E9A6010E
:10695000A4F8A072AE72B4F82002C01B00B20028E6
:1069600001DD0220A872089838B3B9F1000F1CD0DD
:10697000B4F84812F1B3B4F84A0200BFA4F84A02CE
:1069800094F84C22401C42438A420ED2A87A60B14D
:10699000AE72B4F84A02401CA4F84A02FEF7BEFAEE
:1069A00000F00700401C84F84C0294F8A402294629
:1069B0000AF04FFA40B301E009E00BE00D9880F0D7
:1069C000010084F8700200200FB0BDE8F08F40F2A3
:1069D0002E511BE0B9F1000FCAD194F85C020028D7
:1069E000E3D0D4F864122069411A284609F0B1F8BE
:1069F000000400E006E0000CD7D0189901B108802F
:106A00000120E1E70020B9E740F28C513020FCF78B
:106A1000D7F80000E000002070B504460BF0A3FF9B
:106A2000642801D9054600E0642594F86B0028210C
:106A30000AF01BF92844D4F8641200F510700E18FF
:106A400094F86B0028210AF010F900F5297220460D
:106A5000E16A09F083FB054632462046216909F0C8
:106A60007DFB09498542C86000D2284688600A78C3
:106A700002B9C860D4F87C02A0F269100861BDE8D0
:106A8000704006F01BB90000E00000207CB5044611
:106A900006F0E2F9D4F89032D4F89422C01A61EBEF
:106AA000020100221346121A8B4102DB40F20961F7
:106AB0004DE0421C71F1000102DB40F20A6146E048
:106AC000226900210AB1B0FBF2F194F89E000D2872
:106AD000B4F86E021BD0B4F894205318C31A1BB23A
:106AE000002B01DB401C01E0491C5018A4F86E0289
:106AF00094F871028DF80000009800909DF8000055
:106B000040B9B4F86E02B4F82412884202D1401C95
:106B1000A4F86E02B4F8A202401CA4F8A202B4F8D1
:106B2000CE00B4F8CC10401AB4F89410401E0844BB
:106B300085B226E001A8002300901A462046FFF700
:106B400061FD00283AD0012804D040F2496130208C
:106B5000FCF736F8B4F86E02B4F82012421A12B2FA
:106B6000002A09DABDF804200244AA1A12B2002A47
:106B700002DAA4F86E1204E0BDF804100844A4F888
:106B80006E02B4F86E12681A00B20028D2DA94F8D5
:106B9000A10088B15FF0080084F8BD000B2208490D
:106BA00004F1B40009F0A2FA20460AF0E2FA204605
:106BB000BDE87C400AF0B2B93E20EDE77CBD0000A4
:106BC0002B04020000000000000001000000000093
:106BD0000000010000000000141E00003011000041
:106BE000F401FA00960064004B0032001E0014000D
:106BF0000A0005000200010010B50446D0F8D402D6
:106C00002169884209D1B4F8D812228B914204D16B
:106C1000B4F8DA12628B914214D02188A4F8CA1118
:106C200008F0B4FEA4F8CC01B4F8D802A4F8CE0160
:106C3000B4F8DA02A4F8D0010922074904F5DF709C
:106C400009F068FA02212046FDF780FD002004F8D3
:106C50009E0F0320E07010BD6F0402000648054936
:106C600001650649416507480549016506494165D1
:106C700070470000DD7F010014010020C180010089
:106C800093130200C0010020BD1302001E481D49DD
:106C900081601E4941601E4901601E4981621E4992
:106CA000C1621E49C1601E4981611E4901631E49BE
:106CB00001621E49C1641E4981641E4941641E4926
:106CC00041631E49C1611E4941621F481D498160DF
:106CD0001E49C1611E4941621E49C1621E490161CE
:106CE0001E4941611E4941641E4941631E4981613B
:106CF0001E4901631E4981641E49C1641E498163A6
:106D0000704700000184010014010020CD7D0100C6
:106D1000397E0100551202009F120200F97E010027
:106D2000B7120200C5840100957F010027120200FE
:106D30000112020079830100AD8301003984010052
:106D4000A17F010007150200C0010020A1850100FC
:106D50008F1302002714020069130200E9140200D5
:106D600097140200C71402002D85010029150200A6
:106D7000ED13020017140200E5140200064805494D
:106D80008165064901660748054981650649C1656F
:106D9000704700004181010014010020258201009C
:106DA0004D140200C001002077140200F8B57C4C9D
:106DB0000121A4F1100621700025606075807570B6
:106DC000357080F82B120088FCF70CFB80B16068EE
:106DD0000088FCF76FFD60680088FCF713FD6068B1
:106DE000B0F82212C9B180300AF0D2F918B114E01B
:106DF00040F659516CE0606890F830118DF8001041
:106E0000009900919DF8001039B190F89F2001235E
:106E10001946803008F0D3FD80B1606880300AF0F8
:106E2000B7F928B1606890F8260100BF00F0B4FB04
:106E3000606890F82D1289B1B5801EE06068A0F8F6
:106E4000D05090F8311180F828110021022000F074
:106E500063FE606880F82A520220E7E790F8C611C6
:106E60008DF80010009900919DF8001019B9C18C9F
:106E7000028B914200D8018BB180B0F82612491ED6
:106E80008FB2B0F828123944A0F8281230F8CC1F7D
:106E90003944018001F0B2FB20B1606850F8C01F96
:106EA000394401606168B1F82202012802D8401C0F
:106EB000A1F822020FB181F8345281F82A52B1F8B8
:106EC000262201F1800008F01EFF20B14FF45A6124
:106ED0003120FBF775FE606890F89E100A2901D0FA
:106EE0000B2919D1B0F89420B0F8CC32D21A12B2D2
:106EF000002A11DBD0F8CE12C0F8A61090F8D212FA
:106F000080F8AA100321FDF721FC606880F89E50EC
:106F1000FF2180F8F41026E0252911D1B0F8941053
:106F2000B0F8CC22891A09B2002909DB80F89E50FA
:106F300000F0ACFE0028606880F83C5129D012E0D7
:106F400090F89D10252901D027290CD1B0F8941074
:106F5000B0F8CC22891A09B2002904DB80F89D50D0
:106F600000F094FEA8B10F480090D6E904010E4B42
:106F70000E4AFCF72DFD60680123052190F89E2044
:106F8000803008F01CFD002809D0BDE8F840FCF76F
:106F900019BDBDE8F8400021084600F0C9BBF8BDA6
:106FA0000C010020317701006D720100D97B0100D6
:106FB00004480021406820F8D81F8178491C81705E
:106FC000704700000C010020074810B5416811F817
:106FD000DA0F401E40B20870002804DA40F20121A6
:106FE0003120FBF7EDFD10BD0C0100201D4908B557
:106FF000496891F89E20C0B1112A06D0152A07D001
:10700000162A09D01C2A28D109E001210B2008E00A
:1070100014480AF061F906E000F09CFD03E001214C
:10702000062000F079FD012008BD222A04D02F2A75
:1070300013D101211120F4E791F83C0102280ED070
:1070400091F83C01012808D191F83D018DF800002C
:10705000009800909DF8000008B1002008BD0121B3
:107060001720DEE70C01002038B5002876D13C4C13
:107070006068D0F88C10CA0702D00121092069E0AD
:107080008A070AD501210C2000F046FD606810F83F
:10709000DD1F41F0010101705EE04A0702D50121C8
:1070A000132057E00A0706D590F8201180F8281120
:1070B000012107204EE011F0300F47D090F8331136
:1070C0008DF80010009900919DF80010D9BB90F840
:1070D000321100258DF80010009900919DF80010E4
:1070E000C1B190F89E1025292ED090F89D10252929
:1070F0002AD0002300F2CE2200F5997109F020F881
:10710000606850F88C1F21F0200141F010010160EF
:1071100080F8A650606890F88C10C9061ED509F05A
:107120002AF805216068FFF737F900F025F9616852
:1071300001F12C00C28BA1F82821408CA1F82A0172
:107140000121152006E009E00123D3E7480605D513
:107150000121242000F0E0FC012038BD002038BDD2
:107160000C01002070B50D46064608F027FF0446C6
:10717000304608F025FF294600F01EF8B8B1204639
:1071800008F0C7FC01000DD00A48406890F86B2059
:107190008A4207D090F83C11012905D090F8670089
:1071A000204204D0012070BD90F83F01F8E7002094
:1071B00070BD00000C01002070B50D46044608F0BB
:1071C000A8FC50B31649496891F86A20824224D03D
:1071D00091F83C31012B05D091F86630234213D051
:1071E0001DB11AE091F83E31F8E791F863102142A1
:1071F00013D15AB1042A0ED004280CD0082A0AD080
:10720000082808D0824208D9002070BD40F2A3119E
:107210000620FBF7D5FC8242F6D3012070BD0000AA
:107220000C01002010B5104C01230021606890F87B
:107230009D20803008F0C3FB40B160680123042129
:1072400090F89E20803008F0BAFB08B1002010BDF5
:10725000606890F8CA000028F9D00021122000F0E0
:107260005BFC012010BD00000C0100200D4902460E
:107270004878A0B901F11000406842B18978090747
:1072800003D590F89F00072809D00120704700F12E
:107290002C018A8C818E8A4201D8FFF759B80020D0
:1072A00070470000FC00002038B5324C054660688D
:1072B000803009F06DFF00285BD1002D59D1606846
:1072C0000123194690F89F20803008F078FB0028B1
:1072D0004FD1606890F830118DF80010009900913E
:1072E0009DF80020002142B1A0F8D01090F8311193
:1072F00080F828110021022030E090F89E20012320
:107300000421803008F05BFB0546FFF7ADFE002846
:107310002FD12846FFF76AFE00282AD1FFF782FF07
:10732000002826D1606890F89D1009291AD0002DF8
:107330001FD100F01DFB00281BD160680123002134
:1073400090F89D20803008F03AFB002811D060684A
:1073500090F8C40200280CD00021FF20BDE838407E
:1073600000F0DABB90F8211180F8281100210720E5
:10737000F4E738BD0C0100200848436893F860002A
:10738000012806D003F5B17203F12C011888FDF72E
:1073900047BD022083F86000704700000C01002008
:1073A000F8B52B4D060005F1100433D100F0AAF812
:1073B00000F052F806002DD16988480706D56068AC
:1073C00090F89F00062801D101202870880716D563
:1073D000A868C0782B2807D21E4951F8201019B18F
:1073E0001B48103088470AE0FF2804D040F60211FD
:1073F0003120FBF7E5FB1648103009F0ACFFA87808
:10740000C00607D5606890F89E100A2902D10B21AA
:1074100080F89E106878000718D560680123052160
:1074200090F89E20803008F0CAFA08B108260DE0D6
:107430000025694603200095FCF78CFB009828B1D5
:1074400005722A226168009808F050FE3046F8BDA7
:10745000FC000020C001002070B5284D0020A97854
:10746000C90717D0E86805F110040123C6786068E1
:10747000052190F89E20803008F0A1FA58B1B61E80
:107480000A2E06D2DFE806F00707050507070505FF
:107490000707082070BDE868FDF778FA38B3E86898
:1074A000C5781DB1012D01D0162D13D1606890F85B
:1074B0009D0008F0DCFA68B1616891F89D00202811
:1074C00008D0212803D0162D0FD0022070BD2E2009
:1074D00081F89D002B2D0AD2094850F8251031B1B2
:1074E000BDE87040054810300847202070BDBDE859
:1074F00070400248103000F059BD0000FC00002030
:107500001401002070B5234EB078000740D506F175
:1075100010046068803009F03BFE48B16068FE21CD
:10752000002580F8261190F89E101A290CD104E04D
:1075300040F60E113120FBF743FB80F8DB50FFF7DC
:1075400043FD606880F89E50606890F89D10202987
:1075500002D0312913D10BE090F89E0008F087FA91
:1075600008B12E2000E02120616881F89D0006E02E
:10757000012180F8C51280F89D5080F8D6506068CF
:1075800090F89F10072903D10221317080F826114D
:1075900070BD0000FC00002038B505466846FCF7C9
:1075A00073F908B32222002100980BF0E0FB0321BD
:1075B000009808F01DFD0098017801F0EF010170BE
:1075C0002946FDF7F3F9594C112D2DD00FDCA5F10B
:1075D00002050D2D1FD2DFE805F0211E519E9E21D0
:1075E0001E5E1E9E3A348C0040F6B53199E0172D90
:1075F00070D008DCA5F11205052D0CD2DFE805F0EE
:107600008B8B50503300232D77D0242D75D0252D12
:1076100073D0FF2D77D040F6614182E06068009919
:1076200090F82801087176E0606890F823110098BE
:1076300008F0CAFC606890F82211009808F0C8FCB5
:1076400069E06168009891F82211017163E0009887
:107650000C21017159214171002181714B21C171AE
:107660001221017257E00098D4F8041091F83E11ED
:107670000171616891F83F1141714CE061680098B7
:1076800001F5107108F05BFC6168009801F58E71DE
:1076900008F052FC3FE025480099FDF7D7FC3AE09E
:1076A0006068B0F84C10009808F0AAFC6068B0F868
:1076B0002A11009808F0A8FC6068B0F848100098FB
:1076C00008F0A6FC6068B0F82811009808F0A4FC47
:1076D00021E0FFE7616891F83C0101280098C5D0DE
:1076E00091F866100171616891F86710C4E704E0D1
:1076F00009E00098FDF75AFC0DE00C4A2846009975
:1077000009F066FF07E0606890F8C722D0F8C81259
:10771000009808F05FFCFCF791F8002804D140F6CF
:1077200065413120FBF74CFA38BD00000C01002008
:107730002DE9F35F8C4E8A4670680088FBF752FE95
:1077400007000CD0A6F110054FF000046888C005B2
:107750000AD57068A0F8CC4080F8344209E040F6C1
:1077600045713120FBF72CFA716831F8CC0F401CC1
:10777000088000F043FF4FF0010940B3688800051E
:1077800006D5706890F8A31011B1C0F8C0401EE093
:107790007068D0F8C010491CC0F8C010D0F8C420E0
:1077A0008A4201D3531A00E00023B5F804C00CF15B
:1077B000050C634501D880F8CA90914207D3C0F800
:1077C000C0400F22694900F5AC7008F0A3FC68883E
:1077D0004FF0020B10F4407F0ED0706890F8A110AB
:1077E00011B1032908D102E080F8A19001E080F8EE
:1077F000A1B00121FEF7D0FD7068B04690F8A1104D
:10780000012904D16988490501D580F8A1B0009902
:10781000002979D1A978490602D5A0F8484204E0A8
:10782000B0F84812491CA0F848125046FFF7B8FDBE
:1078300040EA0A008246FFF737FDD8F80460B6F840
:107840002802401CA6F8280296F82C0228B1FCF762
:10785000BFF9B0B1A6F8284213E0FCF797F808B1D9
:10786000A6F82842FCF78CF858B196F83402401C70
:10787000C0B286F83402022803D9A6F8284286F856
:107880003442D8F804004646012390F89E20002197
:10789000803008F094F820B9706890F89E000B28AA
:1078A0005FD170680123002190F89D20803008F09E
:1078B00086F850B370680123002190F89F20803033
:1078C00008F07DF808B3706890F8A110022948D13B
:1078D00090F83402C8B9384607F078FBA8B1706850
:1078E000803009F055FC80B97168B1F82202012896
:1078F00037D981F82A92B1F8CE20B1F8CC00931E86
:10790000984203DB012004E01CE02AE0101A401E2C
:1079100080B2B1F82832AA88934201D3012202E052
:10792000D21A521C92B2904200D91046012801D1BD
:1079300081F82A427168B1F894201044A1F8240219
:1079400000F028FFA8785246C0F38011009800F09C
:1079500069FED8F8040080F82B42BDE8FC5FFBF715
:1079600057BF01207168E3E70C0100207705020092
:107970007CB5684C01230021606890F89D20803020
:1079800008F01DF800287AD0606890F843110025AF
:1079900039B100210E2000F0BFF8606880F8435133
:1079A000B5E090F8421119B190F8DD10890716D0B2
:1079B00090F832118DF80410019901919DF804108E
:1079C00041B190F833118DF80010009900919DF8A5
:1079D000001089B190F83C11012930D040E000211D
:1079E0000C2000F099F8606810F8DD1F41F00101EB
:1079F000017080F865508AE090F89E1025291CD00F
:107A000090F89D10252918D05FF0000300F2CE22D7
:107A100000F5997108F094FB606880F832510021FC
:107A2000142000F079F8616801F12C00C28BA1F8F4
:107A30002821408CA1F82A0169E00123E6E790F8AB
:107A40003D118DF80010009900919DF8001039B992
:107A500090F89E2001230B21803007F0B0FF78B111
:107A6000606890F849118DF80010009900919DF818
:107A70000010B9B30021232000F04EF847E030E0B9
:107A8000606890F86A0009F08BFB0546606890F822
:107A90006B0009F085FB0646606890F83E112846A9
:107AA00009F089FB50B1606890F83F11304609F049
:107AB00082FB18B1002000F041F911E06068012359
:107AC000032190F89E20803007F079FF40B960686C
:107AD0000123022190F89E20803007F070FF10B142
